{
  "contractName": "Store",
  "abi": [
    {
      "constant": true,
      "inputs": [
        {
          "name": "",
          "type": "string"
        }
      ],
      "name": "products",
      "outputs": [
        {
          "name": "name",
          "type": "string"
        },
        {
          "name": "price",
          "type": "uint256"
        },
        {
          "name": "owner",
          "type": "address"
        },
        {
          "name": "purchased",
          "type": "bool"
        }
      ],
      "payable": false,
      "stateMutability": "view",
      "type": "function"
    },
    {
      "constant": true,
      "inputs": [
        {
          "name": "",
          "type": "address"
        }
      ],
      "name": "deals",
      "outputs": [
        {
          "name": "name",
          "type": "string"
        },
        {
          "name": "price",
          "type": "uint256"
        },
        {
          "name": "seller",
          "type": "address"
        },
        {
          "name": "buyer",
          "type": "address"
        },
        {
          "name": "isDone",
          "type": "bool"
        }
      ],
      "payable": false,
      "stateMutability": "view",
      "type": "function"
    },
    {
      "constant": true,
      "inputs": [
        {
          "name": "",
          "type": "uint256"
        }
      ],
      "name": "productIndex",
      "outputs": [
        {
          "name": "",
          "type": "string"
        }
      ],
      "payable": false,
      "stateMutability": "view",
      "type": "function"
    },
    {
      "constant": true,
      "inputs": [
        {
          "name": "",
          "type": "uint256"
        }
      ],
      "name": "auctions",
      "outputs": [
        {
          "name": "",
          "type": "address"
        }
      ],
      "payable": false,
      "stateMutability": "view",
      "type": "function"
    },
    {
      "constant": true,
      "inputs": [
        {
          "name": "",
          "type": "string"
        }
      ],
      "name": "auctionsMapping",
      "outputs": [
        {
          "name": "",
          "type": "address"
        }
      ],
      "payable": false,
      "stateMutability": "view",
      "type": "function"
    },
    {
      "inputs": [
        {
          "name": "_tokenAddress",
          "type": "address"
        }
      ],
      "payable": false,
      "stateMutability": "nonpayable",
      "type": "constructor"
    },
    {
      "payable": true,
      "stateMutability": "payable",
      "type": "fallback"
    },
    {
      "anonymous": false,
      "inputs": [
        {
          "indexed": false,
          "name": "name",
          "type": "string"
        },
        {
          "indexed": false,
          "name": "price",
          "type": "uint256"
        },
        {
          "indexed": false,
          "name": "owner",
          "type": "address"
        },
        {
          "indexed": false,
          "name": "purchased",
          "type": "bool"
        }
      ],
      "name": "ProductCreated",
      "type": "event"
    },
    {
      "anonymous": false,
      "inputs": [
        {
          "indexed": false,
          "name": "name",
          "type": "string"
        },
        {
          "indexed": false,
          "name": "price",
          "type": "uint256"
        },
        {
          "indexed": false,
          "name": "owner",
          "type": "address"
        },
        {
          "indexed": false,
          "name": "purchased",
          "type": "bool"
        }
      ],
      "name": "ProductPurchased",
      "type": "event"
    },
    {
      "anonymous": false,
      "inputs": [
        {
          "indexed": false,
          "name": "name",
          "type": "string"
        },
        {
          "indexed": false,
          "name": "price",
          "type": "uint256"
        },
        {
          "indexed": false,
          "name": "seller",
          "type": "address"
        },
        {
          "indexed": false,
          "name": "buyer",
          "type": "address"
        }
      ],
      "name": "DealCreated",
      "type": "event"
    },
    {
      "constant": true,
      "inputs": [
        {
          "name": "_address",
          "type": "address"
        }
      ],
      "name": "checkBalance",
      "outputs": [
        {
          "name": "_balance",
          "type": "uint256"
        }
      ],
      "payable": false,
      "stateMutability": "view",
      "type": "function"
    },
    {
      "constant": false,
      "inputs": [
        {
          "name": "_name",
          "type": "string"
        },
        {
          "name": "_price",
          "type": "uint256"
        }
      ],
      "name": "sellProduct",
      "outputs": [],
      "payable": false,
      "stateMutability": "nonpayable",
      "type": "function"
    },
    {
      "constant": false,
      "inputs": [
        {
          "name": "_name",
          "type": "string"
        },
        {
          "name": "_price",
          "type": "uint256"
        },
        {
          "name": "_time",
          "type": "uint256"
        }
      ],
      "name": "sellProduct",
      "outputs": [
        {
          "name": "",
          "type": "bool"
        }
      ],
      "payable": false,
      "stateMutability": "nonpayable",
      "type": "function"
    },
    {
      "constant": false,
      "inputs": [
        {
          "name": "_name",
          "type": "string"
        }
      ],
      "name": "purchaseProduct",
      "outputs": [
        {
          "name": "",
          "type": "bool"
        }
      ],
      "payable": true,
      "stateMutability": "payable",
      "type": "function"
    },
    {
      "constant": true,
      "inputs": [],
      "name": "productCount",
      "outputs": [
        {
          "name": "count",
          "type": "uint256"
        }
      ],
      "payable": false,
      "stateMutability": "view",
      "type": "function"
    },
    {
      "constant": true,
      "inputs": [],
      "name": "auctionCount",
      "outputs": [
        {
          "name": "count",
          "type": "uint256"
        }
      ],
      "payable": false,
      "stateMutability": "view",
      "type": "function"
    },
    {
      "constant": false,
      "inputs": [
        {
          "name": "_seller",
          "type": "address"
        }
      ],
      "name": "clearDeal",
      "outputs": [],
      "payable": false,
      "stateMutability": "nonpayable",
      "type": "function"
    }
  ],
  "bytecode": "0x608060405234801561001057600080fd5b506040516020806127478339810180604052602081101561003057600080fd5b5051600280546001600160a01b039283166001600160a01b03199182161791829055600080548216929093169190911790915560018054909116301790556126ca8061007d6000396000f3fe608060405260043610620000b65760003560e01c8063322d5a33116200006d578063322d5a3314620004cd578063571a26a014620005735780635f51522614620005bd578063945b269c14620005f4578063e0f6ef8714620006ac578063ff37c76514620006c457620000b6565b80630186a42314620000b8578063172c087f146200021657806319f9292614620002d0578063277f050b146200038e5780632ad7157314620003c55780633227a3d414620003ef575b005b348015620000c557600080fd5b506200017060048036036020811015620000de57600080fd5b810190602081018135600160201b811115620000f957600080fd5b8201836020820111156200010c57600080fd5b803590602001918460018302840111600160201b831117156200012e57600080fd5b91908080601f01602080910402602001604051908101604052809392919081815260200183838082843760009201919091525092955062000781945050505050565b6040518080602001858152602001846001600160a01b03166001600160a01b0316815260200183151515158152602001828103825286818151815260200191508051906020019080838360005b83811015620001d7578181015183820152602001620001bd565b50505050905090810190601f168015620002055780820380516001836020036101000a031916815260200191505b509550505050505060405180910390f35b3480156200022357600080fd5b50620000b6600480360360408110156200023c57600080fd5b810190602081018135600160201b8111156200025757600080fd5b8201836020820111156200026a57600080fd5b803590602001918460018302840111600160201b831117156200028c57600080fd5b91908080601f016020809104026020016040519081016040528093929190818152602001838380828437600092019190915250929550509135925062000853915050565b6200037a60048036036020811015620002e857600080fd5b810190602081018135600160201b8111156200030357600080fd5b8201836020820111156200031657600080fd5b803590602001918460018302840111600160201b831117156200033857600080fd5b91908080601f01602080910402602001604051908101604052809392919081815260200183838082843760009201919091525092955062000b01945050505050565b604080519115158252519081900360200190f35b3480156200039b57600080fd5b50620000b660048036036020811015620003b457600080fd5b50356001600160a01b031662001005565b348015620003d257600080fd5b50620003dd62001059565b60408051918252519081900360200190f35b348015620003fc57600080fd5b5062000426600480360360208110156200041557600080fd5b50356001600160a01b03166200105f565b6040805160208082018790526001600160a01b03808716938301939093529184166060820152821515608082015260a080825287519082015286519091829160c083019189019080838360005b838110156200048d57818101518382015260200162000473565b50505050905090810190601f168015620004bb5780820380516001836020036101000a031916815260200191505b50965050505050505060405180910390f35b348015620004da57600080fd5b50620004fb60048036036020811015620004f357600080fd5b503562001130565b6040805160208082528351818301528351919283929083019185019080838360005b83811015620005375781810151838201526020016200051d565b50505050905090810190601f168015620005655780820380516001836020036101000a031916815260200191505b509250505060405180910390f35b3480156200058057600080fd5b50620005a1600480360360208110156200059957600080fd5b5035620011db565b604080516001600160a01b039092168252519081900360200190f35b348015620005ca57600080fd5b50620003dd60048036036020811015620005e357600080fd5b50356001600160a01b031662001203565b3480156200060157600080fd5b50620005a1600480360360208110156200061a57600080fd5b810190602081018135600160201b8111156200063557600080fd5b8201836020820111156200064857600080fd5b803590602001918460018302840111600160201b831117156200066a57600080fd5b91908080601f01602080910402602001604051908101604052809392919081815260200183838082843760009201919091525092955062001289945050505050565b348015620006b957600080fd5b50620003dd620012af565b348015620006d157600080fd5b506200037a60048036036060811015620006ea57600080fd5b810190602081018135600160201b8111156200070557600080fd5b8201836020820111156200071857600080fd5b803590602001918460018302840111600160201b831117156200073a57600080fd5b91908080601f0160208091040260200160405190810160405280939291908181526020018383808284376000920191909152509295505082359350505060200135620012b5565b805160208183018101805160038252928201938201939093209190925280546040805160026001841615610100026000190190931692909204601f8101859004850283018501909152808252919290918391830182828015620008285780601f10620007fc5761010080835404028352916020019162000828565b820191906000526020600020905b8154815290600101906020018083116200080a57829003601f168201915b5050505060018301546002909301549192916001600160a01b0381169150600160a01b900460ff1684565b60008251116200089f5760408051600160e51b62461bcd02815260206004820152600c6024820152600160a01b6b496e76616c6964206e616d6502604482015290519081900360640190fd5b60008111620008eb5760408051600160e51b62461bcd02815260206004820152600d6024820152600160981b6c496e76616c696420707269636502604482015290519081900360640190fd5b6040518060800160405280838152602001828152602001336001600160a01b03168152602001600015158152506003836040518082805190602001908083835b602083106200094c5780518252601f1990920191602091820191016200092b565b51815160209384036101000a60001901801990921691161790529201948552506040519384900381019093208451805191946200098f94508593500190620016a8565b506020828101516001808401919091556040840151600290930180546060909501511515600160a01b02600160a01b60ff02196001600160a01b039095166001600160a01b0319909616959095179390931693909317909155600580549283018082556000919091528451909262000a30927f036b6384b5eca791c62761152d0c79bb0604c104a5fb6f4eb0703f3154bb3db09091019190860190620016a8565b50507f8075e725aa7828dccdbc60d5b4692e5ecb19c1ec33df4d79dc1129227cea39a282823360006040518080602001858152602001846001600160a01b03166001600160a01b0316815260200183151515158152602001828103825286818151815260200191508051906020019080838360005b8381101562000abf57818101518382015260200162000aa5565b50505050905090810190601f16801562000aed5780820380516001836020036101000a031916815260200191505b509550505050505060405180910390a15050565b600062000b0d6200172d565b6003836040518082805190602001908083835b6020831062000b415780518252601f19909201916020918201910162000b20565b518151600019602094850361010090810a82019283169219939093169190911790925294909201968752604080519788900382018820805460a0601f6002600184161590990290960190911696909604938401839004909202880185019052608087018281529095508694509285925084018282801562000c065780601f1062000bda5761010080835404028352916020019162000c06565b820191906000526020600020905b81548152906001019060200180831162000be857829003601f168201915b5050509183525050600182015460208201526002909101546001600160a01b03808216604080850191909152600160a01b90920460ff1615156060909301929092528201519192503390821681141562000caa5760408051600160e51b62461bcd02815260206004820152601960248201527f43616e742062757920796f7572206f776e2070726f6475637400000000000000604482015290519081900360640190fd5b600062000cb78262001203565b9050836020015181101562000d165760408051600160e51b62461bcd02815260206004820152601060248201527f4e6f7420656e6f7567682066756e647300000000000000000000000000000000604482015290519081900360640190fd5b7f684f6cb1148636eef80c272a709a0d4153ae81062cf0c3f521bb4d44259c6128846000015185602001518460016040518080602001858152602001846001600160a01b03166001600160a01b0316815260200183151515158152602001828103825286818151815260200191508051906020019080838360005b8381101562000dab57818101518382015260200162000d91565b50505050905090810190601f16801562000dd95780820380516001836020036101000a031916815260200191505b509550505050505060405180910390a16003866040518082805190602001908083835b6020831062000e1d5780518252601f19909201916020918201910162000dfc565b51815160209384036101000a6000190180199092169116179052920194855250604051938490030190922091506000905062000e5a828262001760565b50600060018201819055600290910180546001600160a81b03191690556040805160a081018252888152602087810151818301526001600160a01b038781168385018190529087166060840152608083018590528452600481529190922082518051919262000ecf92849290910190620016a8565b5060208281015160018301556040808401516002840180546001600160a01b039283166001600160a01b031991821617909155606080870151600390960180546080988901511515600160a01b02600160a01b60ff021998861691909416179690961691909117909455888301518251808501829052898316938101939093529087169382019390935283815289519381019390935288517fbc1cb29dd68a6a2662f0789b9bf49259f0f3112fd8a4bc6334d606db3c29494b938a93928892889291829160a083019188019080838360005b8381101562000fbb57818101518382015260200162000fa1565b50505050905090810190601f16801562000fe95780820380516001836020036101000a031916815260200191505b509550505050505060405180910390a150600195945050505050565b6001600160a01b0381166000908152600460205260408120906200102a828262001760565b50600060018201556002810180546001600160a01b031916905560030180546001600160a81b03191690555b50565b60065490565b60046020908152600091825260409182902080548351601f60026000196101006001861615020190931692909204918201849004840281018401909452808452909291839190830182828015620010fa5780601f10620010ce57610100808354040283529160200191620010fa565b820191906000526020600020905b815481529060010190602001808311620010dc57829003601f168201915b5050505060018301546002840154600390940154929390926001600160a01b03918216925090811690600160a01b900460ff1685565b600581815481106200113e57fe5b600091825260209182902001805460408051601f6002600019610100600187161502019094169390930492830185900485028101850190915281815293509091830182828015620011d35780601f10620011a757610100808354040283529160200191620011d3565b820191906000526020600020905b815481529060010190602001808311620011b557829003601f168201915b505050505081565b60068181548110620011e957fe5b6000918252602090912001546001600160a01b0316905081565b6000805460408051600160e01b6370a082310281526001600160a01b038581166004830152915191909216916370a08231916024808301926020929190829003018186803b1580156200125557600080fd5b505afa1580156200126a573d6000803e3d6000fd5b505050506040513d60208110156200128157600080fd5b505192915050565b80516020818301810180516007825292820191909301209152546001600160a01b031681565b60055490565b600080845111620013025760408051600160e51b62461bcd02815260206004820152600c6024820152600160a01b6b496e76616c6964206e616d6502604482015290519081900360640190fd5b600083116200134e5760408051600160e51b62461bcd02815260206004820152600d6024820152600160981b6c496e76616c696420707269636502604482015290519081900360640190fd5b43826200136381603c63ffffffff620013c616565b905060006200137a82600e63ffffffff6200143016565b9050600062001390848363ffffffff6200149f16565b600154600254919250620013bb91869184918c918c9133916001600160a01b039081169116620014fd565b505050509392505050565b600082620013d7575060006200142a565b82820282848281620013e557fe5b04146200142757604051600160e51b62461bcd0281526004018080602001828103825260218152602001806200267e6021913960400191505060405180910390fd5b90505b92915050565b60008082116200148a5760408051600160e51b62461bcd02815260206004820152601a60248201527f536166654d6174683a206469766973696f6e206279207a65726f000000000000604482015290519081900360640190fd5b60008284816200149657fe5b04949350505050565b600082820183811015620014275760408051600160e51b62461bcd02815260206004820152601b60248201527f536166654d6174683a206164646974696f6e206f766572666c6f770000000000604482015290519081900360640190fd5b6000878787878787876040516200151490620017a8565b8781526020808201889052606082018690526001600160a01b03808616608084015284811660a0840152831660c083015260e060408301818152885191840191909152875190916101008401919089019080838360005b83811015620015855781810151838201526020016200156b565b50505050905090810190601f168015620015b35780820380516001836020036101000a031916815260200191505b5098505050505050505050604051809103906000f080158015620015db573d6000803e3d6000fd5b509050806007876040518082805190602001908083835b60208310620016135780518252601f199092019160209182019101620015f2565b51815160209384036101000a6000190180199092169116179052920194855250604051938490030190922080546001600160a01b03199081166001600160a01b0395861617909155600680546001810182556000919091527ff652222313e28459528d920b65115c16c04f3efc82aaedc97be59f3f377c0d3f0180549091169490931693909317909155505050505050505050565b828054600181600116156101000203166002900490600052602060002090601f016020900481019282601f10620016eb57805160ff19168380011785556200171b565b828001600101855582156200171b579182015b828111156200171b578251825591602001919060010190620016fe565b5062001729929150620017b6565b5090565b6040518060800160405280606081526020016000815260200160006001600160a01b031681526020016000151581525090565b50805460018160011615610100020316600290046000825580601f1062001788575062001056565b601f016020900490600052602060002090810190620010569190620017b6565b610ea780620017d783390190565b620017d391905b80821115620017295760008155600101620017bd565b9056fe608060405234801561001057600080fd5b5060405162000ea738038062000ea7833981018060405260e081101561003557600080fd5b815160208301516040840180519294919382019264010000000081111561005b57600080fd5b8201602081018481111561006e57600080fd5b815164010000000081118282018710171561008857600080fd5b50506020820151604083015160608401516080909401519295509093509190858710610100576040517f08c379a000000000000000000000000000000000000000000000000000000000815260040180806020018281038252602b81526020018062000e7c602b913960400191505060405180910390fd5b4387111561016f57604080517f08c379a000000000000000000000000000000000000000000000000000000000815260206004820152601460248201527f496e636f72726563742073746172742074696d65000000000000000000000000604482015290519081900360640190fd5b6001600160a01b0382166101e457604080517f08c379a000000000000000000000000000000000000000000000000000000000815260206004820152601360248201527f4f776e6572206e6f742073706563696669656400000000000000000000000000604482015290519081900360640190fd5b60018054306001600160a01b031991821617909155600080549091166001600160a01b03831617905560028790556003869055845161022a906004906020880190610267565b5050600592909255600980546001600160a01b039283166001600160a01b0319918216179091556008805492909316911617905550610302915050565b828054600181600116156101000203166002900490600052602060002090601f016020900481019282601f106102a857805160ff19168380011785556102d5565b828001600101855582156102d5579182015b828111156102d55782518255916020019190600101906102ba565b506102e19291506102e5565b5090565b6102ff91905b808211156102e157600081556001016102eb565b90565b610b6a80620003126000396000f3fe608060405234801561001057600080fd5b50600436106100b45760003560e01c80635340731c116100715780635340731c146101ac57806391f90157146101b45780639979ef45146101bc5780639af6549a146101d9578063a035b1fe146101e1578063d57bde79146101e9576100b4565b806306fdde03146100b9578063083c63231461013657806326b387bb1461015057806338af3eed1461017657806348c54b9d1461019a57806348cd4cb1146101a4575b600080fd5b6100c16101f1565b6040805160208082528351818301528351919283929083019185019080838360005b838110156100fb5781810151838201526020016100e3565b50505050905090810190601f1680156101285780820380516001836020036101000a031916815260200191505b509250505060405180910390f35b61013e61027f565b60408051918252519081900360200190f35b61013e6004803603602081101561016657600080fd5b50356001600160a01b0316610285565b61017e610297565b604080516001600160a01b039092168252519081900360200190f35b6101a26102a6565b005b61013e6104ba565b61017e6104c0565b61017e6104cf565b6101a2600480360360208110156101d257600080fd5b50356104de565b6101a26107cb565b61013e6109b5565b61013e6109bb565b6004805460408051602060026001851615610100026000190190941693909304601f810184900484028201840190925281815292918301828280156102775780601f1061024c57610100808354040283529160200191610277565b820191906000526020600020905b81548152906001019060200180831161025a57829003601f168201915b505050505081565b60035481565b600b6020526000908152604090205481565b6009546001600160a01b031681565b60035443116102ff5760408051600160e51b62461bcd02815260206004820152601460248201527f41756374696f6e206973206e6f7420656e646564000000000000000000000000604482015290519081900360640190fd5b336000908152600b6020526040902054806103645760408051600160e51b62461bcd02815260206004820152601360248201527f4e6f7468696e6720746f207472616e7366657200000000000000000000000000604482015290519081900360640190fd5b336000818152600b60205260408120556006546001600160a01b03161415610432576000546007546001600160a01b039091169063a9059cbb9033906103b190859063ffffffff6109c116565b6040518363ffffffff1660e01b815260040180836001600160a01b03166001600160a01b0316815260200182815260200192505050602060405180830381600087803b15801561040057600080fd5b505af1158015610414573d6000803e3d6000fd5b505050506040513d602081101561042a57600080fd5b506104b79050565b6000805460408051600160e01b63a9059cbb0281523360048201526024810185905290516001600160a01b039092169263a9059cbb926044808401936020939083900390910190829087803b15801561048a57600080fd5b505af115801561049e573d6000803e3d6000fd5b505050506040513d60208110156104b457600080fd5b50505b50565b60025481565b6001546001600160a01b031681565b6006546001600160a01b031681565b60035443106105375760408051600160e51b62461bcd02815260206004820152601160248201527f41756374696f6e2068617320656e646564000000000000000000000000000000604482015290519081900360640190fd5b60055460005460408051600160e01b6370a0823102815233600482015290516001600160a01b03909216916370a0823191602480820192602092909190829003018186803b15801561058857600080fd5b505afa15801561059c573d6000803e3d6000fd5b505050506040513d60208110156105b257600080fd5b5051101561060a5760408051600160e51b62461bcd02815260206004820152601060248201527f4e6f7420656e6f7567682066756e647300000000000000000000000000000000604482015290519081900360640190fd5b60075481116106635760408051600160e51b62461bcd02815260206004820152601c60248201527f426964206973206c657373207468656e20686967686573742062696400000000604482015290519081900360640190fd5b60055481116106a657604051600160e51b62461bcd028152600401808060200182810382526027815260200180610b186027913960400191505060405180910390fd5b6009546001600160a01b03163314156107095760408051600160e51b62461bcd02815260206004820152601760248201527f43616e7420626964206f6e206f776e2070726f64756374000000000000000000604482015290519081900360640190fd5b6000805460015460408051600160e01b6323b872dd0281523360048201526001600160a01b03928316602482015260448101869052905191909216926323b872dd92606480820193602093909283900390910190829087803b15801561076e57600080fd5b505af1158015610782573d6000803e3d6000fd5b505050506040513d602081101561079857600080fd5b50506007819055600680546001600160a01b031916339081179091556000908152600b6020526040902080549091019055565b60035443116108245760408051600160e51b62461bcd02815260206004820152601460248201527f41756374696f6e206973206e6f7420656e646564000000000000000000000000604482015290519081900360640190fd5b6009546001600160a01b031633146108865760408051600160e51b62461bcd02815260206004820152601c60248201527f4f6e6c792073656c6c65722063616e20636c61696d20746f6b656e7300000000604482015290519081900360640190fd5b60075460009061089d90600563ffffffff610a2616565b90506108b081606463ffffffff610a8916565b6000546007549192506001600160a01b03169063a9059cbb9033906108db908563ffffffff6109c116565b6040518363ffffffff1660e01b815260040180836001600160a01b03166001600160a01b0316815260200182815260200192505050602060405180830381600087803b15801561092a57600080fd5b505af115801561093e573d6000803e3d6000fd5b505050506040513d602081101561095457600080fd5b50506000805460085460408051600160e01b63a9059cbb0281526001600160a01b039283166004820152602481018690529051919092169263a9059cbb92604480820193602093909283900390910190829087803b15801561048a57600080fd5b60055481565b60075481565b600082821115610a1b5760408051600160e51b62461bcd02815260206004820152601e60248201527f536166654d6174683a207375627472616374696f6e206f766572666c6f770000604482015290519081900360640190fd5b508082035b92915050565b600082610a3557506000610a20565b82820282848281610a4257fe5b0414610a8257604051600160e51b62461bcd028152600401808060200182810382526021815260200180610af76021913960400191505060405180910390fd5b9392505050565b6000808211610ae25760408051600160e51b62461bcd02815260206004820152601a60248201527f536166654d6174683a206469766973696f6e206279207a65726f000000000000604482015290519081900360640190fd5b6000828481610aed57fe5b0494935050505056fe536166654d6174683a206d756c7469706c69636174696f6e206f766572666c6f774269642073686f756c6420626520626967676572207468656e20696e697469616c207072696365a165627a7a72305820d901580aae6a62002d6a3401701724bf88ecc0cd68513c84924554833c4b6f67002941756374696f6e2073746172742074696d652069732067726561746572207468616e20656e642074696d65536166654d6174683a206d756c7469706c69636174696f6e206f766572666c6f77a165627a7a7230582099807abea9ed4145e8ca77e871a2c827df9653bad017e6926967749b20db009d0029",
  "source": "pragma solidity ^0.5.0;\n\nimport './VSTToken.sol';\nimport '@openzeppelin/contracts/math/SafeMath.sol';\n\ncontract Store {\n    using SafeMath for uint;\n    VSTToken Token;\n    constructor(address _tokenAddress) public {\n        tokenAddress = _tokenAddress;\n        Token = VSTToken(tokenAddress);\n        contractAddress = address(this);\n    }\n    address payable contractAddress;\n    address tokenAddress;\n    mapping(string => Product) public products;\n    mapping(address => Deal ) public deals;\n    string[] public productIndex;\n\n    // related with auction\n    address[] public auctions;\n    mapping(string => address) public auctionsMapping;\n\n    struct Product {\n        string name;\n        uint price;\n        address payable owner;\n        bool purchased;\n    }\n\n    struct Deal {\n        string name;\n        uint price;\n        address payable seller;\n        address payable buyer;\n        bool isDone;\n    }\n\n    event ProductCreated(\n        string name,\n        uint price,\n        address payable owner,\n        bool purchased\n    );\n\n    event ProductPurchased(\n        string name,\n        uint price,\n        address payable owner,\n        bool purchased\n    );\n\n    event DealCreated(\n        string name,\n        uint price,\n        address seller,\n        address buyer\n    );\n\n    // fallback function\n    function () external payable {\n    }\n\n    function checkBalance(address _address) public view returns (uint _balance) {\n        return Token.balanceOf(_address);\n    }\n// regular sale for pt1 and pt2\n    function sellProduct(string memory _name, uint _price) public {\n        // Require a valid name\n        require(bytes(_name).length > 0, \"Invalid name\");\n        // Require a valid price\n        require(_price > 0, \"Invalid price\");\n        // Increment product count\n        // Create the product\n        products[_name] = Product(_name, _price, msg.sender, false);\n        // add index to an array\n        productIndex.push(_name);\n        // Trigger an event\n        emit ProductCreated(_name, _price, msg.sender, false);\n    }\n\n// overloaded sale method for auction feature\n    function sellProduct (\n        string memory _name,\n        uint _price,\n        uint _time\n    )\n        public\n        returns (bool)\n    {\n        require(bytes(_name).length > 0, \"Invalid name\");\n        require(_price > 0, \"Invalid price\");\n\n        uint startBlock = block.number;\n        uint auctionDuration = _time;\n        // @TODO check gas limit when doing complex calc\n        // to seconds\n        auctionDuration = auctionDuration.mul(60);\n        // avg block time is 14 seconds\n        // number of block will be created during _time\n        uint auctDurationInBlocks = auctionDuration.div(14);\n        uint endBlock = startBlock.add(auctDurationInBlocks);\n        // factory function that creates auction for the product\n        auctionFactory(startBlock, endBlock, _name, _price, msg.sender, contractAddress, tokenAddress);\n    }\n    function purchaseProduct(string memory _name) public payable returns (bool) {\n        // Fetch the product\n        Product memory _product = products[_name];\n        // Fetch the owner\n        address payable _seller = _product.owner;\n        address payable _buyer = msg.sender;\n        // Require that the buyer is not the seller\n        require(_seller != _buyer, \"Cant buy your own product\");\n        // Check buyer token balance\n        uint buyerBalance = checkBalance(_buyer);\n        require(buyerBalance >= _product.price, \"Not enough funds\");\n        // Trigger an event\n        emit ProductPurchased(_product.name, _product.price, _buyer, true);\n        // Delete the product => set its values to 0\n        delete products[_name];\n        // remove _name from an array\n        // @dev delete productIndex[uint key]\n        // add product to deals mapping\n        deals[_seller] = Deal(_name, _product.price, _seller, _buyer, false);\n        emit DealCreated(_name, _product.price, _seller, _buyer);\n        return true;\n    }\n\n    function productCount() public view returns (uint count) {\n        count = productIndex.length;\n    }\n    function auctionCount() public view returns (uint count) {\n        count = auctions.length;\n    }\n\n    function clearDeal(address _seller) public {\n        return delete deals[_seller];\n    }\n\n    function auctionFactory(\n        uint _startBlock,\n        uint _endBlock,\n        string memory _name,\n        uint _price,\n        address _beneficiary,\n        address _owner,\n        address _token\n    )\n        internal\n    {\n        // need to create contract with these parameters\n        address NewAuction = address(new ProductAutcion(_startBlock, _endBlock, _name, _price, _beneficiary, _owner, _token));\n        auctionsMapping[_name] = NewAuction;\n        auctions.push(NewAuction);\n    }\n}\n\ncontract ProductAutcion {\n    using SafeMath for uint;\n\n    VSTToken Token;\n    address public productAuction;\n    // Auction state\n    uint public startBlock;\n    uint public endBlock;\n    string public name;\n    uint public price;\n    address public highestBidder;\n    uint public highestBid;\n    address owner;\n    address public beneficiary;\n    address store;\n    // bidders funds\n    mapping(address => uint) public pendingReturns;\n\n    constructor(\n        uint _startBlock,\n        uint _endBlock,\n        string memory _name,\n        uint _price,\n        address _beneficiary,\n        address _owner,\n        address _token\n    )\n        public\n    {\n        require(_startBlock < _endBlock, \"Auction start time is greater than end time\");\n        require(_startBlock <= block.number, \"Incorrect start time\");\n        require(_owner != address(0), \"Owner not specified\");\n\n        productAuction = address(this);\n        Token = VSTToken(_token);\n        startBlock = _startBlock;\n        endBlock = _endBlock;\n        name = _name;\n        price = _price;\n        beneficiary = _beneficiary;\n        owner = _owner;\n    }\n        // store users bids\n    function placeBid(uint tokenAmount) public onlyBeforeEnd {\n        // check balance\n        require(Token.balanceOf(msg.sender) >= price, 'Not enough funds');\n        // check highest bid, if less => revert\n        require(tokenAmount > highestBid, 'Bid is less then highest bid');\n        // bid should be > then price\n        require(tokenAmount > price, \"Bid should be bigger then initial price\");\n        // seller can't bid\n        require(msg.sender != beneficiary, 'Cant bid on own product');\n\n        Token.transferFrom(msg.sender, productAuction, tokenAmount);\n        highestBid = tokenAmount;\n        highestBidder = msg.sender;\n        pendingReturns[msg.sender] += tokenAmount;\n\n    }\n        // withdraw funds\n    function claimTokens() public onlyAfterAuction {\n        uint balance = pendingReturns[msg.sender];\n        require(balance > 0, \"Nothing to transfer\");\n        pendingReturns[msg.sender] = 0;\n        if (msg.sender == highestBidder) {\n            Token.transfer(msg.sender, balance.sub(highestBid));\n        }\n        else {\n            Token.transfer(msg.sender, balance);\n        }\n    }\n\n    function beneficiaryWithdraw() public onlyAfterAuction {\n        require(msg.sender == beneficiary, \"Only seller can claim tokens\");\n        // calc 5% commission\n        uint commission = highestBid.mul(5);\n        commission = commission.div(100);\n        // send to seller\n        Token.transfer(msg.sender, highestBid.sub(commission));\n        // send 5% to store\n        Token.transfer(owner, commission);\n    }\n\n    modifier onlyBeforeEnd {\n        require(block.number < endBlock, \"Auction has ended\");\n        _;\n    }\n\n    modifier onlyAfterAuction {\n        require(block.number > endBlock, \"Auction is not ended\");\n        _;\n    }\n\n\n\n}",
  "sourcePath": "/Users/roman/Documents/Projects/VST/contracts/Store.sol",
  "compiler": {
    "name": "solc",
    "version": "0.5.8+commit.23d335f2.Emscripten.clang"
  },
  "schemaVersion": "3.0.16",
  "updatedAt": "2019-10-25T12:24:51.250Z",
  "devdoc": {
    "methods": {}
  },
  "userdoc": {
    "methods": {}
  }
}